:020000022000DC
:1060000000000120E92C0300112D0300E9F102003A
:10601000152D0300172D0300192D030000000000AB
:106020000000000000000000000000001B2D030025
:106030001D2D0300000000001F2D0300212D030073
:1060400001150300232D0300352C030081240300D8
:10605000232D0300232D0300E11B0300232D030048
:10606000D123030029240300232D0300232D030043
:10607000232D0300232D0300232D0300232D0300D4
:10608000232D030079F50200232D0300232D0300A7
:1060900019F60200232D0300B1020300232D030093
:1060A000232D0300232D0300232D0300232D0300A4
:1060B000232D0300232D030000000000000000003A
:1060C000232D0300232D0300232D0300232D030084
:1060D000232D0300232D0300232D030000000000C7
:1060E00000000000000000000000000000000000B0
:1060F00000000000000000000000000000000000A0
:10610000000000000000000000000000000000008F
:10611000000000000000000000000000000000007F
:10612000000000000000000000000000000000006F
:10613000000000000000000000000000000000005F
:10614000000000000000000000000000000000004F
:10615000000000000000000000000000000000003F
:10616000000000000000000000000000000000002F
:10617000000000000000000000000000000000001F
:10618000000000000000000000000000000000000F
:1061900000000000000000000000000000000000FF
:1061A00000000000000000000000000000000000EF
:1061B00000000000000000000000000000000000DF
:1061C00000000000000000000000000000000000CF
:1061D00000000000000000000000000000000000BF
:1061E00000000000000000000000000000000000AF
:1061F000000000000000000000000000000000009F
:1062000010B5054C237833B9044B13B10448AFF3F0
:1062100000800123237010BDA8240020000000008E
:106220007C74030008B5034B1BB103490348AFF36B
:10623000008008BD00000000AC2400207C74030036
:10624000154B002B08BF134B9D46A3F5803A002148
:106250008B460F461348144A121A0DF097FE0F4B47
:10626000002B00D098470E4B002B00D09847002001
:10627000002104000D000D48002802D00C48AFF3A7
:1062800000800DF025FE200029000DF055FC0DF0DA
:106290000BFE00BF0000080000000120000000000D
:1062A00000000000A8240020E835002000000000C5
:1062B0000000000072DF704773DF704774DF7047C3
:1062C00070B5044600F1AA060D46304607220021AB
:1062D0000DF05CFEE38813B1A378012B6AD0E3795B
:1062E000002B64D194F8AB30002B74D194F8AC300F
:1062F000002B70D194F8AD30002B6CD194F8AE30F7
:10630000002B68D194F8AF30002B64D194F8B030F2
:106310001A1C18BF01226B1E032B00F23681DFE826
:1063200003F002530A0DA379002B4DD094F82430CA
:10633000002B49D12AB9237A002B64D1657A002D2C
:106340004DD1A570002384F8B33004F13C05182228
:10635000002128460DF01AFEE26A0123511E9942DF
:1063600084F83C3012D994F8242084F8513092B14A
:1063700084F85230A378002284F85020042B00F2D5
:10638000F380DFE803F067426BAA7B0094F82430C7
:1063900084F851200BBBA378002284F85020042BF2
:1063A00000F2E280DFE803F05631D1C5CB00A378DC
:1063B000022B97D1636B002B00F0E480012284F85C
:1063C000B120082098478DE7E379002BB3D0002A4D
:1063D000B1D00225B5E701229DE7A36AC8E70422F0
:1063E000636BA270002BADD06279002AAAD094F81A
:1063F000B220002AA6D1012184F8B42084F8B31079
:1064000007209847A1E70322EAE7002301200221A1
:106410008022266484F83100C4F8A430636484F8D0
:106420003C10A4F8482000212A4604F15400FFF74C
:1064300041FF00B170BD94F8301094F85400FFF79C
:106440003BFF0028F6D1636B13B194F831009847F5
:10645000002070BD002384F83130F4E7022384F873
:1064600031300723D4E9032184F83C30002326642B
:10647000A4F84810C4F8A4306264D4E7D4E9072132
:1064800062640622A4F8481084F83C206279002A4D
:1064900060D094F8B220002A5CD194F8B420002A8D
:1064A00058D0022384F850300122B4F89810D4F860
:1064B000940000F05BFD08B10423037004F194061E
:1064C00031462A4604F15400FFF7F4FE002854D167
:1064D0000622A37884F8312041E0D4E905216264E2
:1064E0000622A4F8481084F83C206279002A3ED0A5
:1064F00094F8B220DABB94F8B420C2B3022384F833
:1065000050300122B4F89810D4F8940000F02EFD19
:1065100008B10423037004F1940631462A4604F1BD
:106520005400FFF7C7FE40BB0522A37884F8312052
:1065300015E0D4E905126164A4F84820D5E7D4E950
:1065400007126164A4F84820A0E7022384F83130E0
:10655000032387E7042284F8312004F19406C4F869
:10656000A460002B3FF46FAFD4F8A4105CE70322C3
:1065700084F8312004F19406F1E7A378002B3FF46E
:1065800062AFF1E784F8B130ACE60025D9E600BF90
:1065900080F83010704700BF00294BD0002849D048
:1065A000F8B591F87A301BB191F89830002B3FD1B3
:1065B000D1F8A030042B3BD0D1F89C30042B37D03D
:1065C0004FF0000C80F802C001F1780604460F4637
:1065D0000FCE251D0FC50FCE0FC596E8070085E825
:1065E000070084F830C0D7F8A4306363D7F8A83028
:1065F000A3634FF6FF7504F19403C4F8A430614619
:10660000A4F8A850072204F1AA000DF0BFFC2378DB
:106610000BB984F85450224604F155011F25C4F8E3
:106620009410384622F8985F00F0A4FA20B1F8BD23
:106630000720F8BD0E207047224604F17401C4F80B
:106640009C1007F13C0022F8A05F00F093FA0028AC
:10665000EDD1D4E905250123206484F850000146DA
:10666000626484F8513084F83C30A4F8485004F156
:106670003C0204F15400FFF71DFE0028D7D123701F
:10668000F8BD00BFF8B5057855B104460020A170EB
:106690000E4608F073F928B1012363700020F8BD9D
:1066A0000820F8BD04F1AA070146072238460DF07C
:1066B0006DFCE38813B1A378012B6BD0E37913B1A0
:1066C000A378022B66D094F8AB3083B994F8AC3041
:1066D0006BB994F8AD3053B994F8AE303BB994F837
:1066E000AF3023B994F8B050003518BF0125731EA0
:1066F000032B00F23181DFE803F00235080BA379A8
:1067000083B394F824306BBB2DB9237A002B61D16D
:10671000667A002E4AD1A670002384F8B33004F1C3
:106720003C051822002128460DF030FCE26A0123C6
:10673000511E994284F83C301BD994F8242084F8E7
:106740005130DAB184F85230A378002284F8502016
:10675000042B00F29E80DFE813F066003F00D900B2
:106760009F006A00E379002BCFD0002DCDD0022608
:10677000D1E794F8243084F85120ABB9A3780022F3
:1067800084F85020042B00F28480DFE803F04C25CD
:10679000CFB9B300636B002B00F0DB80012284F8DB
:1067A000B120082098478EE7A36ACBE70422636BE9
:1067B000A270002BB0D06279002AADD094F8B2203C
:1067C000002AA9D1012184F8B42084F8B31007204D
:1067D0009847A4E70322EAE7002301200221802250
:1067E000276484F83100C4F8A430636484F83C1052
:1067F000A4F8482000212A4604F15400FFF75AFD6E
:1068000000287FF44CAF94F8301094F85400FFF750
:1068100053FD00287FF443AF636B13B194F831004C
:1068200098470020F8BD002384F83130F4E7D4E91C
:10683000072162640622A4F8481084F83C2062799B
:10684000002A7ED094F8B220002A7AD194F8B4209D
:10685000002A76D0022384F850300122B4F8981030
:10686000D4F8940000F082FB08B10423037004F113
:10687000940631462A4604F15400FFF71BFD002818
:1068800065D10622A37884F83120C4F8A460002BD7
:10689000C2D0D4F8A410AEE7D4E905216264062280
:1068A000A4F8481084F83C206279002A43D094F878
:1068B000B220002A3FD194F8B420002A3BD0022312
:1068C00084F850300122B4F89810D4F8940000F005
:1068D0004DFB08B10423037004F1940631462A46A7
:1068E00004F15400FFF7E6FC88BB0522A37884F886
:1068F0003120CAE7D4E907126164A4F848209EE772
:10690000D4E905126164A4F84820CDE7022384F895
:1069100031300723D4E9032184F83C300023276475
:10692000A4F84810C4F8A430626463E7022384F832
:1069300031300323EEE7032284F8312004F194067A
:10694000A3E7042284F8312004F194069DE7A3789C
:106950009DE784F8B130B6E60026DCE670B5038822
:10696000112B0C460BD0262B1ED0102B00D070BD47
:10697000C37B012BFBD18388A1F8A83070BD002315
:1069800081F8B2308288B1F8A8309A42EFD1087904
:106990000028ECD10B784BB301258D7007F0EEFF8A
:1069A000C0B10123637070BD037A013B012BDED8B7
:1069B0000B78DBB18B780E4D0133A5FB0325AD08B9
:1069C00005EB85055B1BDDB28D70002007F0D6FF5F
:1069D0000028E6D129462046FFF772FC0028C6D0E1
:1069E000A36B002BC3D0BDE8704018470820F7E721
:1069F000CDCCCCCC0238012801D84B7803B97047F4
:106A000070B50B7800200C46487033B18D7807F0D4
:106A1000B5FF48B10123637070BD0820A36B002B44
:106A2000FAD0BDE87040184729462046FFF748FCD9
:106A30000028F3D170BD00BF70B5044690F8540033
:106A4000FFF73CFC0023012284F8B22084F8B43024
:106A500084F85030B4F89810D4F8940000F086FA16
:106A600008B10623037004F13C0204F1940104F11F
:106A70005400FFF71FFC054608B1284670BD237877
:106A80003BB1A67807F07AFF50B101236370284626
:106A900070BD0820A36B002BEFD09847284670BD2F
:106AA00031462046FFF70CFC0028F3D1E5E700BF94
:106AB0006DDF704779DF70477DDF704764DF7047B7
:106AC0002DE9F04F83B004880C9EBDF83490B6F8E1
:106AD00000A0002C39D09846002317468B46054667
:106AE0001C4603E02A880134A24224DD6A6852F879
:106AF0002400019000220DF1030101A8FFF7DEFF41
:106B000020BB9DF80320BA42ECD13288B91803B3F8
:106B100089452BDB42440DF1030101A80123FFF756
:106B2000CDFF98B931889DF803200A4432802A8825
:106B30000134A242DADC43B13388013BA3EB0A0300
:106B40009BB2FF2B12D808F80A30002003B0BDE832
:106B5000F08F02310132894592B207DB328008F8AA
:106B600002B03288013292B23280D3E70C2003B0F7
:106B7000BDE8F08F2DE9F04700231788138090F8C7
:106B80002D3086B0144605460E46002B40F0F880A6
:106B9000AA78002A40F0FA80EA78A2B1D91CB9425A
:106BA00000F2F0800221F154238801339BB20121CD
:106BB0002380F15423880B449BB22380F254238812
:106BC0000B449BB223806A68AAB1D91CB94200F277
:106BD000D980022192F90020F154238801339BB21D
:106BE0000A212380F154238801339BB22380F2547D
:106BF0002388013323802B89002B40F018812B8AB6
:106C0000002B40F02C812B8B002B40F040812B6A15
:106C1000002B47D0B4F800E00EF10602BA4200F2B1
:106C2000B1801A88052A40F2FE806FF4486802EBB2
:106C3000080189B24FF27D30814240F2F4805988D8
:106C4000052940F2F0806FF4486C8C441FFA8CFCEC
:106C5000844540F2E8804FF6FF70824204D08142C2
:106C600002D08A4200F2DF80052206F80E20228838
:106C7000013292B212212280B1542288013292B2A2
:106C800022801988B1543244090A51702288023294
:106C900092B222805B88B35432441B0A537023881B
:106CA000023323806B6A002B2FD09988B4F800C080
:106CB000881C0CF102020244BA4263D8FE2861D853
:106CC000033106F80C102288013292B2FF21228093
:106CD000B1542288013292B222801988B1543244D0
:106CE000090A51702088023080B220809A8862B1EF
:106CF00099680393002900F0968030440DF03BF929
:106D0000039B9A8823881344238095F82C30002B0A
:106D100040F084802878002835D02B88012B00F0A3
:106D20008280228802F1020CBC452BD8012804D1B4
:106D30006B78023313449F4224D3BB1E9B1A06A9CF
:106D40009BB221F8083D06EB0C00FFF7B5FED0B969
:106D50002A78022A00F0FB80012A00F00081082135
:106D6000FE2B0FD82288581CB0542288013292B2D0
:106D70002280B1542288013213442380002002E093
:106D8000082F23D80C2006B0BDE8F0870433BB429F
:106D9000F8D804A8FFF78EFE0028F4D12388BDF8A8
:106DA00010200321F154238801339BB21921238041
:106DB000F154238801339BB2F1182380F254120A54
:106DC0004A70238802339BB22380E5E604A8FFF7CC
:106DD0006FFE0028D7D113880822CA5423880133B4
:106DE0009BB21B222380CA542088013080B22080AD
:106DF000062208440DF111010DF0BDF823889DF81D
:106E0000102006339BB212F0FE0218BF012223802D
:106E1000F254238801339BB22380B9E6D5F8288049
:106E2000B8F1000F4CD1072006B0BDE8F08705F19E
:106E300008080222CDE90047404611463346FFF7D5
:106E40003FFE00289FD1CDE900474046334610223F
:106E50000621FFF735FE00283FF4D1AE93E705F198
:106E60001008CDE900474046334602220321FFF7D0
:106E700027FE002887D1CDE900474046334610223F
:106E80000721FFF71DFE00283FF4BDAE7BE705F1AB
:106E90001808CDE900474046334602221421FFF787
:106EA0000FFE00287FF46FAFCDE900474046334620
:106EB00010221521FFF704FE00283FF4A8AE62E778
:106EC000B8F804200232FE2A3FF65CAF23884FF068
:106ED00000094FF0160A0132F254238801339BB2A5
:106EE000238006F803A0238801339BB22380B8F8DF
:106EF0000020F2543344120A5A70238802339BB2A2
:106F00002380B8F80410F0180A4661B1D8F80830A8
:106F10001946002B87D00DF02EF8B8F804202388EE
:106F200013449BB2238009F1010995F82C205FFAE4
:106F300089F94A4509EB49087FF6ECAEAA6A02EBEB
:106F40008808B8F804200232FE2AC4D91AE7BDF82E
:106F500010209342FFF403AF1346092100E76A783B
:106F60009342FFF4FCAE13460821F9E6F8B130B4C1
:106F7000437893421CD0B9B10024234601E09942E2
:106F800012D9045D013423449BB2C5181C466D78A8
:106F90009542F4D1994207D9025D0233012A9BB28E
:106FA00002D0184430BC7047002030BC7047704796
:106FB00000242346EEE700BF75DF704776DF704799
:106FC0007ADF70477BDF704730B51D4B1A8884B27B
:106FD000A24283B001D003B030BD1A4D187A297B8C
:106FE00088420FD32A7C00211972E2B96B69002B09
:106FF000F1D00022ADF806408DF8042001A8984792
:1070000003B030BD104603F10A01FFF7D5FF28B1E8
:107010001128E0D0AB69002BF1D1DCE71A7A0132FC
:107020001A7203B030BD3B212046FFF7C7FF30F096
:107030000803DBD0AB69002BD8D09847D6E700BF58
:10704000E0240020C4240020F0B50288112A83B077
:10705000034649D036D9122A08D0502A04D16C4DA3
:10706000C188EA89914251D003B0F0BD694C828851
:1070700021889142F8D1E1896589B1F5FA7F24BF71
:107080006FF4F9700E18588938BF002685424FD822
:10709000A58985424CD39B89B34249D301F2F311B0
:1070A000994245D35A4B5B694FF480712181002B83
:1070B000DAD00121ADF806208DF8041001A8984718
:1070C00003B0F0BD102ACFD1C27B012ACCD1514CE4
:1070D00021884FF6FF7291423CD04D4B9B69002BAB
:1070E000C2D004209847BFE74A4C828823889A423E
:1070F000BAD1606808F0F2FC18B1454B9B6903B146
:1071000098474FF6FF73238003B0F0BD028A022A2E
:10711000AAD1404C86882788B742A5D1123000F00A
:10712000F7F9002856D1606808F0D8FC70B99BE7E1
:10713000374D267A6068D5E90131002E08BF19461F
:107140000023637208F074FC00288DD0AB69002B1B
:10715000B5D189E7304D8288228003CDC4F80E1066
:10716000E689C4F80A00B6F5FA7F28BF6FF4F9750E
:107170004FF00001588AB4F80AC0217228BF711973
:10718000234D8445EF8919D8B4F80CC0844515D334
:107190009B8A8B4212D306F2F3169E420ED3012134
:1071A0006172002F7FF460AF6B69002B3FF45CAF1E
:1071B0008DF80410ADF8062001A880E70023637263
:1071C000002F7FF451AF6068696808F031FC002837
:1071D000BCD149E7637A63B9D5E90131267A6068A1
:1071E0003A46002E08BF194608F022FC0028ADD10F
:1071F0003AE76B6900222272002B3FF435AF01227F
:10720000ADF806608DF8042001A898472CE700BF70
:10721000C4240020E0240020F424002000282FD0E3
:10722000F8B5054606460FCD164F3C460FC48446BA
:1072300095E80700144B3B6084E80700BCF1000FA1
:1072400018D06046FFF7BCFE98B9326810685168E4
:1072500003C30E4B0E490F4A18464FF6FF7440F811
:10726000041F1C80002108F0D1FB002814BF03205C
:107270000020F8BD1846FFF7A5FE0028E9D0F8BDAC
:107280000E207047C4240020F4240020E0240020B5
:10729000FC240020C96F02002DE9F0470388B0F8F4
:1072A0000490112B98B05BD01A2B804649D0102B3C
:1072B00002D018B0BDE8F0873A4A936818A8DB43BB
:1072C00040F8603D516803F0A1FD009B0193019BD4
:1072D00063B300273C46214601A803F0B3FE28B162
:1072E00018AB03EB4703013723F8284C0134142C67
:1072F000F1D10D970DAE0FCE02AC0FC40FCE0FC45F
:1073000096E8070084E8070087B10DF10A0A264EC7
:107310000AEB47073AF8025F244C2046294604341A
:1073200003F086FEA642F8D1BA45F3D1B9F1130FA6
:107330001DD91F4AE321042008F032FE18B0BDE831
:10734000F087047A1B482409012C494620D903F010
:1073500065FE022C494618481ED003F05FFEA8E7E0
:107360004946164803F064FE18B0BDE8F087494668
:10737000124803F053FE49460C4803F04FFE98F8BC
:107380000F30012B95D049460D4803F047FE90E79A
:1073900003F04EFE0848494603F04AFE18B0BDE827
:1073A000F08700BF1C250020942500202025002008
:1073B000B05103002C25002030250020242500207A
:1073C00028250020132801D90020704710B5014658
:1073D0000446074803F036FE08B9002010BD2146D8
:1073E000044803F02FFE002814BF0220012010BD26
:1073F0002025002028250020132801D900207047CF
:1074000010B501460446064803F01CFE08B90020EA
:1074100010BD21460348BDE8104003F013BE00BF75
:10742000202500202C25002008B51821024803F053
:1074300013FEC0B208BD00BF1C25002070B50C4C67
:10744000054620460E4603F0FDFD08B1132D01D977
:10745000002070BD2946201D03F0F4FD0028F7D060
:10746000B01D04EB80002946BDE8704003F0EABD82
:107470001C250020F8B50F4C0546204617460E4641
:1074800003F0E0FD08B1132D00D9F8BD2946201DF9
:1074900003F0D8FD0028F8D0B01D04EB8000294689
:1074A0001FB9BDE8F84003F0C3BDBDE8F84003F0E4
:1074B000B5BD00BF1C250020F0B5144C054683B0B7
:1074C0000F4620462946164603F0BCFD18B9002594
:1074D000284603B0F0BD043504EB8504A36801938E
:1074E000002FF4D0019B002BF1D000252C46214623
:1074F00001A803F0A7FD314610B1A0B2B84701358D
:107500000134142CF3D1284603B0F0BD1C25002013
:10751000007800F00100704790DF7047A5DF7047EA
:10752000B5DF7047F0B5002485B003466A462046B3
:1075300002A9ADF80830ADF80A3003940094ADF814
:107540000440FFF7E9FF064610B9304605B0F0BD2C
:10755000134F3D8807F0DAFF2D0445F0010503467F
:10756000224628460F4905F00FF9BDF80020BDF866
:10757000023002B933B138880B49000440F00100F1
:1075800005F002F9BDF80420002ADED0388807494A
:10759000000440F0010005F065F8304605B0F0BD8C
:1075A00074240020105203005C5203009C5203001C
:1075B00008B90E20704730B403464FF01712002070
:1075C0001B2541F61B3419611A60C3F806201D7192
:1075D0009872D8729C8130BC704700BF838823BBEF
:1075E00030B50288232A83B00C461FD03FD93A2AEF
:1075F00024D0552A4DD0242A6BD0A37A9BB1E188A0
:107600000020FFF78BFF00283FD011280BD05B4BE9
:107610001C8807F07BFF240444F00104024658490B
:10762000204605F01FF803B030BD70470B7B007A91
:10763000984228BF1846FFF775FFDEE74389C988DF
:1076400022698B4228BF0B46172B38BF1723238193
:107650004AB1E17A39B140F677210091ADF80430B2
:107660006946204690470023E372A372DBE7102AA5
:1076700040D0112AC1D14FF0171141F61B32A3722D
:10768000E372C4F80610A281CDE70122A072E27273
:10769000C9E7C288C988A372172A38BF17228A424D
:1076A00028BF0A4618462281FFF73AFF00283BD13F
:1076B000E37A002BA1D12369002B9ED040F67721DD
:1076C00022890091ADF80420694620469847A37AA4
:1076D00094E70A69017A6173002A8ED04DF67A2008
:1076E000ADF8043000908DF80410204669469047AC
:1076F000A37A83E70B790B73C27B012A11D0022A8C
:107700000CD0C98822898A421BD3627B9A42BFF47B
:1077100074AF1846FFF706FFA37A6FE74988E18048
:10772000F0E70988E180EDE7144B1D8807F0EEFED5
:107730002D0445F0010502461249284604F092FF47
:10774000B6E70020FFF7EAFE18B90123E372237BB6
:10775000DBE7112803D10123A372237BD5E7074B75
:107760001D8807F0D3FE2D0445F0010502460449AB
:10777000284604F077FF237BC7E700BF742400206E
:10778000F452030028530300B0DF704766DF7047F0
:1077900060B159B10378DE2B0AD00B684360DE225A
:1077A0004FF6FF7302704380002070470E20704731
:1077B0000820704738B10378DE2B02D141800020C9
:1077C0007047082070470E20704700BF19B110B1F4
:1077D0000B78DE2B00D0704730B505464B8880888B
:1077E000984285B00C4606D02A88012A0DD0512A2D
:1077F00020D005B030BD0B7A002B35D12B88112B52
:1078000048D0512B4DD0012BF3D12B7A012BF0D145
:1078100062888242EDD123720021FFF7B7FF002872
:107820004ED0112808BF2372E3D063689847E0E781
:107830006388A8888342DCD1AA79022AD9D1A97B9E
:1078400001F0FD0004282ED00529D2D10020694680
:10785000C1E90200009048608DF800201846FFF74B
:1078600093FF0028E1D1C4E70021FFF78FFF034613
:10787000A8B1112812D0636898472B88112B05D026
:10788000512BD5D0012BB4D1A888BEE7AA88638834
:107890009A42AED14FF6FF736380AAE701232372A9
:1078A000EBE70346C6E7694600204FF4C075486021
:1078B0000090C1E902008DF80020ADF80450CDE73A
:1078C000207296E730B5002187B004462A4802F0BE
:1078D00063F808B907B030BD204600F009FB112855
:1078E000034641D011D9862831D043F2020290429A
:1078F00013D1224B204619780022FFF7BBFD00214F
:107900001D4802F073F807B030BD30B91B4902467C
:1079100009782046FFF7AEFDDCE70025CDE90455E8
:107920000722CDE9015520460393ADF806408DF8B6
:10793000042000F0A7FDADF8080001A801F0C0FE8A
:107940000E4B2A4620461978FFF794FDD7E700250D
:107950000623CDE901552046ADF80640CDE9035593
:1079600005958DF80430E4E7044B20461978012290
:10797000FFF780FDC3E700BF942500209625002077
:1079800070B54FF6FF728AB000249042CDE90044F2
:10799000CDE902440494ADF8020001D10AB070BDF3
:1079A000054600F0F3FA0B28064634D00FD911280B
:1079B0000BD043F20203984218D122461D4B2846B1
:1079C0001978FFF757FD0AB070BD0122F6E768B9D4
:1079D0000E23BDF802008DF8003000F053FDADF825
:1079E0000400684601F06CFE3246E7E700240723F6
:1079F0002846CDE9054407968DF81430ADF81650A9
:107A0000CDE9084400F03EFDADF8180005A801F0EE
:107A100057FE2246D2E70F23BDF802008DF8003052
:107A200000F030FDADF80400684601F049FE224642
:107A3000C4E700BF9525002070B5304E86B0317880
:107A40000546FFF7FBFC08B106B070BD04462846AA
:107A500000F0F4FA08282DD029D943F20203984205
:107A600049D043F20143984240D0112843D000232B
:107A7000072203902846CDE90133CDE904338DF880
:107A80000420ADF8065000F0FDFCADF8080001A898
:107A900001F016FE01221A4B28461978FFF7EAFC7E
:107AA000224631782846FFF7E5FC06B070BD40B1AC
:107AB0000628DCD1284600F0E5FC00F0DBFA0022C5
:107AC000E9E710232846CDE90144CDE903440594B4
:107AD0008DF80430ADF8065000F0D4FC0124ADF868
:107AE000080001A801F0ECFD2246D4E72846FFF784
:107AF00047FF0122CFE70122CDE700BF98250020F4
:107B00009725002070B54FF6FF728AB0002490428E
:107B1000CDE90044CDE902440494ADF8020001D15E
:107B20000AB070BD054600F031FA0B28064634D085
:107B30000FD911280BD043F20203984218D12246E4
:107B40001D4B28461978FFF795FC0AB070BD01223D
:107B5000F6E768B90E23BDF802008DF8003000F09A
:107B600091FCADF80400684601F0AAFD3246E7E753
:107B7000002407232846CDE9054407968DF81430E4
:107B8000ADF81650CDE9084400F07CFCADF81800C3
:107B900005A801F095FD2246D2E70F23BDF80200AB
:107BA0008DF8003000F06EFCADF80400684601F07E
:107BB00087FD2246C4E700BF95250020F0B5047874
:107BC0008BB00CB10BB0F0BD468800944FF6FF733C
:107BD0009E420546ADF80260CDE90144CDE903447B
:107BE0000CD1304600F014FA0028EBD02A4B6888FC
:107BF00019780122FFF73EFC0BB0F0BD304600F0D3
:107C0000C5F90B28074639D012D9112834D043F2D0
:107C1000020398421BD12246204B30461978FFF7C9
:107C200029FC6E88304600F0F3F90028CAD0DDE761
:107C300068B90E23BDF802008DF8003000F022FC78
:107C4000ADF80400684601F03BFD3A46E4E7002445
:107C500007233046CDE9054407978DF81430ADF879
:107C60001660CDE9084400F00DFCADF8180005A839
:107C700001F026FD2246CFE70122CDE70F23BDF814
:107C800002008DF8003000F0FDFBADF804006846FE
:107C900001F016FDBFE700BF9725002095250020C5
:107CA000F0B50378082B83B007D0224C2078224906
:107CB0000022FFF701FC03B0F0BD417A0446002921
:107CC000F3D1057A072D22D0082D2DD0012DECD12E
:107CD0006A462946808801F021F906460028E4D149
:107CE000019B1B78002BE0D0A08800F0ADFC4FF684
:107CF000FF739842D9D0114F0E4C39782A46FFF7BE
:107D0000B9FB324638780E49FFF7D6FBCEE78088BC
:107D1000084C00F099FC4FF6FF739842C6D0012240
:107D20002178FFF7A7FBC1E70648024C01F05EFE91
:107D3000BCE700BF96250020C578020097250020EB
:107D4000397A02009425002070B5FFF76DFB104CC6
:107D5000104D2070FFF768FB2870FFF765FB0E4E93
:107D60003070FFF761FB23780C4A182B10700DD090
:107D70002B78182B0AD03378182B07D0182805D069
:107D80000121074801F000FE002070BD032070BDF6
:107D90009625002095250020972500209825002075
:107DA0009425002070B503888588522B86B050D06A
:107DB000542B26D0502B0DD0284C294B294918780C
:107DC0000022FFF779FB207827490022FFF774FB98
:107DD00006B070BD037B012BEED1827A012AEBD174
:107DE000018942F602139942E6D1204E1B4C3178AC
:107DF0002846FFF73FFB30781D490022FFF75CFB68
:107E0000DBE7002611232846CDE90166CDE90366AC
:107E10008DF80430ADF80650059600F033FBADF850
:107E2000080000F027F9134B0C4C1978324628460D
:107E3000FFF720FB324628462178FFF71BFBBDF8F1
:107E4000060000F01FFBADF8080001A801F038FCA7
:107E5000B3E72846FFF794FD004CAEE797250020D6
:107E600095250020057B0200397A02009625002026
:107E7000C578020098250020AFDF7047B1DF70475A
:107E8000B2DF7047B3DF704770B5134C23884FF6ED
:107E9000FF75AB4282B00DD0104A92E803006E46E7
:107EA00086E8030000221846314601F0F1F92388E4
:107EB000AB420CD102B070BD184601F0D9F90022D6
:107EC0003146208001F0E4F92388AB42F2D011283A
:107ED000F2D102B070BD00BF9A25002068530300A4
:107EE000024B4FF6FF721A80002070479A2500203F
:107EF0002DE9F04182B0074600F0C4FA4FF6FF7357
:107F000098423CD0064601244FF003086B462246B7
:107F10000821304601F006F803230546F0B9019A1E
:107F20003846911D42F8048BFFF7AAFF013403463F
:107F30000821D8B10C28304603D1A4B201F0A6F82C
:107F4000E4E70821052B18BF1D4601F09FF8002823
:107F500018BF0325284602B0BDE8F081072814BFEA
:107F600005460C25284602B0BDE8F0813246304671
:107F700001F046F90546284602B0BDE8F08143F21B
:107F80000205284602B0BDE8F08100BF2DE9F041AE
:107F900082B0074600F076FA4FF6FF73984227D179
:107FA0000026354603244FF0010823463246294671
:107FB0003846FFF763FF04280AD008280AD00B28A8
:107FC0000AD0B8F1000F08BF0B2002B0BDE8F08165
:107FD0001120F6E70020F4E714F0020406D195B171
:107FE0002646254603244FF00008DEE70124FAE781
:107FF0006A46082100F092FF0028D1D1019DAE8889
:108000002C680635CFE7002EDFD02E460324EAE7A2
:1080100000B585B00DF10703039300F033FA02AA0F
:10802000012100F07BFF20B9039B187805B05DF8B3
:1080300004FB002005B05DF804FB00BF38B50C4B15
:1080400004461846FFF71EFF78B9198843F2030566
:108050004FF6FF722046FFF70FFFA84200D038BD51
:108060001988013189B21980F2E7032038BD00BFB9
:108070009C25002010B5074B044693E8030082B00E
:108080006B4683E8030000221946204601F000F900
:1080900002B010BD7053030046DF70470388102BF9
:1080A00000D070472DE9F043041D0FCC9FB007AD01
:1080B0000FC50FCC0FC594E807009DF8203003F0E2
:1080C000FE03062B85E8070062D1BDF81C704FF651
:1080D000FF75AF4259D0DFF834828B4E98F800100C
:1080E00001223846FFF7C6F998F800103846FFF726
:1080F000A5F9002867D00023324602E00133142B93
:1081000061D05188B94202F10C02F7D1DBB203EB26
:10811000430308AA9B0092E80300F41804F1080244
:10812000606022F8021B4FF6FF70090CF052678066
:1081300011704FF6FF739D4227D0BDF81C40734B62
:1081400020461978FFF77AF978B16F4E002332464E
:1081500002E00133142B08D05188A14202F10C0235
:10816000F7D103EB430326F823501EAC002304F899
:10817000303DBDF81C30ADF84C502046ADF84A30CB
:1081800001F0B2FA2046FFF719FD1FB0BDE8F083F9
:1081900000F00AFC9DF820305B08012B26D9022B49
:1081A00093D105AD0DF1060405E09DF8203003F0F4
:1081B000FE03042B42D02A462146072000F0FCFB98
:1081C0000028F2D181E7DFF84091002402E0013479
:1081D000142CAED0B9F8020098F80010FFF72EF971
:1081E00009F10C090028F2D1E3B290E705AD0DF1D9
:1081F00006042A462146072000F0DEFB00283FF453
:1082000064AF069911F1110FF3D09DF820304A7C2C
:10821000534013F0FE0FECD1123106220DF1210074
:108220000BF09AFE0028E4D1BDF81C70BDF8065092
:108230004FF6FF739F423FF47CAF4CE7069E03224C
:108240000DF1210102A80BF096FE032209A904A852
:108250000BF091FE337C8DF84830F37B8DF849307C
:10826000B37B8DF84A30737B8DF84B30337B8DF8C0
:108270004C30F37A8DF84D30B37A8DF84E30737AF6
:108280008DF84F30337A8DF85030F3798DF85130C6
:10829000B3798DF8523073798DF8533033798DF886
:1082A0005430F3788DF85530B3788DF856307378B4
:1082B0008DF857300D22002116A80BF067FE9DF8AF
:1082C00010109DF811209DF812308DF8671012A83B
:1082D0008DF866208DF86530FFF7DEFE9DF877207B
:1082E0009DF876609DF875308DF80C2003A9032267
:1082F00002A88DF80D608DF80E300BF02DFE0028D1
:108300007FF459AF90E700BFA02500209E250020F4
:10831000F8B5102204460D460130013104F1110672
:108320000BF01AFE00284DD16378F3B9A378E3B9B6
:10833000E378D3B92379C3B96379B3B9A379A3B97E
:10834000E37993B9237A83B9637A73B9A37A63B96A
:10835000E37A53B9237B43B9637B33B9A37B23B956
:10836000E37B13B9277C002F2DD06B78002B4DD1E8
:10837000AB78002B4AD1EB78002B47D12B79002B1F
:1083800044D16B79002B41D1AB79002B3ED1EB79F5
:10839000002B3BD12B7A002B38D16B7A002B35D1B7
:1083A000AB7A002B32D1EB7A83BB2B7B73BB6B7B1D
:1083B00063BBAB7B53BBEB7B43BB2F7C003718BF4E
:1083C000012700E00027637C46B115F1110605D0B6
:1083D0006A7C5A4012F0FE0F0CD0002603F0FC031A
:1083E000042B05D06B7C03F0FC03042B18BF37462D
:1083F0003846F8BD062205F1120104F112000BF017
:10840000ABFDB0FA80F67609637CE7E70127DAE78F
:1084100030B585B005460C4600F0C6FA03E0BDF85D
:108420000630A3420BD102AA0DF10601072000F08D
:10843000C3FA0028F3D14FF6FF7005B030BD0399A1
:108440002846FFF765FF0028EDD0BDF80600F4E7E9
:1084500010B50A4B0A4C1822227003F1F0014FF6B6
:10846000FF725A800C338B42FBD1FEF7DDFF1828D8
:1084700020700CBF0320002010BD00BFA0250020ED
:108480009E25002010B50D4B19780446FEF7D6FF47
:1084900080B10B480023024602E00133142B09D0BF
:1084A0005188A14202F10C02F7D103EB430330F8EB
:1084B000230010BD4FF6FF7010BD00BF9E250020A9
:1084C000A025002038B5114B0D4619780446FEF75B
:1084D000B5FFC0B10E480023024602E00133142B61
:1084E00011D05188A14202F10C02F7D103EB4303F2
:1084F00000EB83031A1D586828601B899279AA71C2
:10850000AB80002038BD052038BD00BF9E2500206F
:10851000A025002008B502887AB983786BB9C378A2
:108520005BB903794BB943793BB983792BB9C379EB
:108530001BB9037A0BB9437A13B10B88934201D06C
:10854000002008BD0231082202300BF005FDB0FA10
:1085500080F0400908BD00BF30B585B00446851CD9
:1085600000F022FA02AA0DF10601072000F024FA19
:1085700000285AD023880399002B35D1A278002AED
:1085800057D1E378002B49D12279002A46D162796C
:10859000002A43D1A279002A40D1E279002A3DD1B4
:1085A000227A002A3AD1627A002A37D12379002B25
:1085B0002FD1627952B9A379002B2AD1E2792AB955
:1085C000237A002B3AD1627A002ACBD04A8D9A4284
:1085D000C8D12C31082228460BF0BEFC0028C1D19E
:1085E000BDF8060005B030BDB1F846209A42EDD185
:1085F0004831082228460BF0AFFC0028F0D0238831
:108600000399002BE2D1A278002ADFD1E378002B76
:10861000CCD04A8D00239A42A4D1DAE7B1F84620A3
:10862000002AE5D0002BC1D0F3E74FF6FF7005B06C
:1086300030BDB1F84620002ADAD0C7E713464A8D8C
:108640009A428FD1C5E700BF10B40C4C00232246DC
:1086500002E00133142B0CD01188814202F10C028C
:10866000F7D103EB430304EB83035DF8044B588815
:1086700070474FF6FF705DF8044B7047A02500204F
:1086800038B50C4B0D4619780446FEF7D7FE78B185
:1086900009480023024602E00133142B08D0518818
:1086A000A14202F10C02F7D103EB430320F823505F
:1086B00038BD00BF9E250020A0250020F8B51C4C29
:1086C00000232546224602E00133142B2CD01188CA
:1086D000814202F10C02F7D103EB430305EB830364
:1086E0005E8800F08FFB4FF6FF739E42074600D076
:1086F00008B13846F8BD0F4B30461978FEF79EFE9C
:108700000028F6D03B4602E00133142BF1D06288FA
:10871000B24204F10C04F7D103EB43034FF6FF72AE
:1087200025F823203846F8BDBDE8F84000F06ABBC4
:10873000A02500209E250020F0B500238BB0224FFD
:108740001946082268463B700BF020FC4FF6FF707C
:1087500000F03CFE4FF6FF76B0421BD0044607E027
:1087600000F0DEFD204600F031FEB042044611D09C
:10877000A4F58045ADB228466A4602A905F05AFF25
:108780000A282046ECD0284605F000FE08280346BB
:1087900002D02BB90BB0F0BD01233B700BB0F0BD84
:1087A00000220721079305A84FF6FF73CDE90522A4
:1087B000CDE90822ADF818408DF81410ADF8163048
:1087C00000F02AFA0BB0F0BD9826002010B583897E
:1087D000047886B003F5804300229BB2611ECDE988
:1087E0000122CDE90322ADF80830059204290ED804
:1087F000DFE801F02C2C2C14030013224FF0FF3380
:1088000001A88DF80420CDF8063000F005FA294CB7
:1088100023780BB1FFF790FF06B010BD43F6FE7250
:108820009342F4D8C289002AF1D14268002A3AD092
:108830000B238DF804301F4C01224FF6FF7301A863
:108840002270ADF8063000F0E7F9E1E743F6FE727A
:108850009342C1891ED8D0E90132A4F10304B4FACD
:1088600084F464098DF80C108DF80D400492BBB9A6
:108870009DF8143043F001038DF8143008224FF6B0
:10888000FF7301A88DF80420ADF80630094C00F004
:10889000C3F9BDE701F580439BB29342DBD9B6E74C
:1088A00005930922EBE718460A238DF8043000F0FF
:1088B00037FDC0E79826002030B5194889B005F08B
:1088C00009F948BB05F01CF9054608BB00F0E4FCBB
:1088D00003A8082229460BF059FB0DE005A805F076
:1088E000DFFA019B9C8804F58044A4B205A805F03A
:1088F000FFFA204600F0E6FC05A903AA4CF20700A7
:1089000005F02AFE01A90028E8D0284609B030BDAC
:108910008625284609B030BD0325284609B030BD5C
:10892000CD870200F0B5FF2887B004D8012906D012
:108930000C1F042C03D90724204607B0F0BD0D46B8
:1089400004460021174601A808221E460BF01EFB14
:10895000A4F58040A5F5804180B201AB03AA89B29D
:1089600005F088FDB0B901A903A805F099FA0446FD
:1089700080B9019BBD705A883A808EB133689200ED
:1089800093420BD3786802990BF0F5FA03A805F02F
:10899000AFFAD1E70524204607B0F0BD0424CBE7A9
:1089A000029B7B60F2E700BF0822002101480BF028
:1089B000EDBA00BF90260020012804D0031F042B2D
:1089C00001D90120704770B5044686B0A0F58040FB
:1089D00015460E4680B203A90D4A05F0BDFD10B143
:1089E000002006B070BD01A903A805F059FA0028BF
:1089F000F6D1019BAC705988029A29806A609B88E5
:108A000003F5804303A8338005F072FA0120E8E7FC
:108A10009026002008B58278012A034604D0043A43
:108A2000042A01D9072008BD0846198805F086FAEE
:108A3000072805D00928F6D0002818BF032008BD54
:108A4000862008BD00B583B002AB43F8040D18467C
:108A500005F0B6FA002814BF0320002003B05DF82B
:108A600004FB00BFF0B58BB0FF28019205D88A78CF
:108A7000012A06D0141F042C03D9072420460BB06A
:108A8000F0BDA0F58044A2F5804295B24F68ADF8E4
:108A90001250A4B208221E4602A80B880693002199
:108AA000ADF8104005970BF071FA2946204602AB4D
:108AB00007AA05F0DFFC90B9019B2BBB04A907A80E
:108AC00005F0C4FB04460E2C22D8DFE804F0142184
:108AD00021212121211B1021212121211000019B75
:108AE000C3B904A907A805F097FA0446EBE71124D7
:108AF00020460BB0F0BD002EC0D0314607A805F0CF
:108B000007FEBBE78624B9E701A805F059FAD5E7C7
:108B10000324B3E701AA04A907A805F01BFB044638
:108B2000D1E700BF4FF6FF7000F0CCBBFF2806D89E
:108B300008B500F0E3FBFFF7FFFD002008BD0720AC
:108B4000704700BF00F000BC00F008BC00F03EBC65
:108B500010B582B08278417B044600232C48CDE9D1
:108B600000338DF8022000F0DFFE00283BD0237B8D
:108B7000A178019003EB83039B004A1EADF80030FF
:108B80008DF80210072A08D8DFE802F0200707074F
:108B9000072004301423ADF80030694604F10803BF
:108BA00062682088FFF75EFF07280DD012D91128D0
:108BB00022D0862817D1A37B164A03F0FD0343F089
:108BC00001030121A373117002B010BD0123ADF8A0
:108BD0000030E2E738B9A37B60F3410360F30003A0
:108BE000A37302B010BD032002B010BD8388093307
:108BF0009B08ADF80030D0E7A37B064A43F00203A0
:108C00006FF3000301210020A373117002B010BDA7
:108C1000402700203C2700202DE9F041574DC36834
:108C2000AA68934286B0044600F0A580AA6905F1BF
:108C30001006934218BF00262378092B00F081808C
:108C4000132B7CD0082B27D00026204600F044FCB4
:108C5000204601F0BDFE4A4F2046FFF715F9204699
:108C6000FFF71EF83B7813B906B0BDE8F081AB7B87
:108C7000980737D413F0010302D0002E32D13346C7
:108C8000AA7F910754D4D20750D4002BECD10023F3
:108C90003B7006B0BDE8F081677A002FD4D1002E7A
:108CA000D3D0337B5BB1DFF8E080717B3944C9B24C
:108CB000404600F051FE337B01379F42F5D3B37B32
:108CC00003F0FD036FF300034FF6FF72B373FF2150
:108CD00000233280B27071733373C6E901331E46CC
:108CE000B3E71E462548FFF733FF00283FD0002397
:108CF0001B014FF6FF72EB5AADF808308628ADF82D
:108D0000062036D00390072306AC04F8143D204615
:108D100000F0E2FB204601F05BFE2046FFF7B4F8CE
:108D20002046FEF7BDFF06B0BDE8F081002EACD0B6
:108D30001448FFF70DFF002896D00123D8E701263D
:108D400083E7637A002B7FF47FAF002E3FF47DAF83
:108D5000B27BB36042F00202B273AA7B084F0121DA
:108D600096073970BDD4AB7F9C0790D5E0E701230F
:108D700086E70623C8E72E465EE700BF502700209F
:108D80003C270020602700204027002030B5184CE9
:108D9000184BA57BA27F184905F0FD05FF206FF356
:108DA000000585B06073A57300204FF0500C0225BC
:108DB00002F0FD0260F30002CDE9015C012500959F
:108DC000A2774FF6FF752073C4E901002077C4E94C
:108DD0000500A02209482580A5702582A574657725
:108DE00000F03AFD002814BF0320002005B030BD7C
:108DF00050270020702700209C26002040270020BC
:108E0000FFF790BE2DE9F04FDFF80881B8F8003089
:108E1000B8F81060984283B005460DD0B04274D0C7
:108E20002846FFF783FE074610B1072818BF03271F
:108E3000384603B0BDE8F08F002240460192354A23
:108E4000002702F1100A9D425CD0B54205D0002FE8
:108E5000E6D0384603B0BDE8F08F54460121807853
:108E6000A378834209D05446002936D1B5424FF049
:108E70000101F5D0002FECD1D2E7A37B9B07F2D103
:108E8000A368002BEFD16068002834D14FF0000BAD
:108E9000237B6BB1204E4FF00009617B4944C9B27E
:108EA000304600F059FD217B09F101098945F4D3D1
:108EB000A37B002103F0FD03C4E901114FF6FF700D
:108EC000BBF1000F6FF300034FF0FF0618BF03273D
:108ED000A3732080A07066732173019B002BB6D111
:108EE000B8F81030AB42B2D10122B8F8003001928C
:108EF00050462E46A7E7FFF7A5FD0028C6D04FF045
:108F0000030BC5E7034C0021A9E7012208F110007B
:108F1000019294E750270020402700200023FFF70C
:108F200001BD00BF1BB32DE9F047CC1F012C02D8B7
:108F3000541E012C02D90720BDE8F08782469846CE
:108F400091460F46FFF7FEFD06460028F3D04C4D34
:108F50002A88298A924571D08A4557D04FF6FF73E7
:108F60009A4278D0994204D01120BDE8F0870E20B3
:108F70007047444C0123434903E00C46002BF3D1D6
:108F80000123A278FF2AF8D1A27B9207F5D1A2682B
:108F9000002AF2D1A4F800A0A770617BFF2916D0A7
:108FA0000026394884F80C9000F0BEFC38B309EB79
:108FB000890213019BB29B08A8F8003088F8027060
:108FC000C8F804000EB1082F1BD00020B4E74946B2
:108FD0002D4800F061FCFF2860730146E1D1A37BBE
:108FE000A07003F0FD0300226FF300034FF6FF7142
:108FF000A37321802273C4E9012211209CE703207E
:109000009AE79B00063B8380002095E7012005F14D
:109010001004DFF870C003E0644600289ED10120F0
:10902000A378BB42F8D1A37B9B07F5D1A368002BA3
:10903000F2D1237B4B45B0D00F207DE78A4518D075
:10904000AC78BC428AD1AB7B980787D1AB682C4601
:10905000002B83D1EDE791420ED0AB78FF2B83D16B
:10906000AB7B990780D1AB68002B7FF47DAF044CBC
:1090700090E700202C46CCE7014C00237BE700BFA3
:10908000502700206027002040270020F8B52A4AFA
:109090001488138A844204D0984237D0052630467B
:1090A000F8BD9C4245D093788B42F7D1937B9907CA
:1090B000F4D193681446002BF0D1606800BB002601
:1090C000237B5BB11D4F0025617B2944C9B2384623
:1090D00000F042FC237B01359D42F5D3A37B0022A7
:1090E00003F0FD03C4E901224FF6FF716FF30003A3
:1090F000FF206073A3732180A17022733046F8BDF6
:10910000FFF7A0FC0028DAD00326D9E702F110040B
:1091100001230B4803E00446002BBFD10123A278B2
:109120008A42F8D1A27B9207F5D1A268002AF2D137
:10913000C3E714460023ECE7502700204027002017
:1091400060270020CB1F012B01D90720704770B585
:10915000284A1488138A844282B004D0984233D0BB
:10916000052002B070BD9C4241D093788B42F7D16C
:10917000937B9807F4D193681446002BF0D165686F
:1091800015B1002002B070BD0E461B48617B00F097
:10919000CBFB00958DF80260A0B1237B019003EB1F
:1091A00083039B00082EADF8003005BF8388093388
:1091B00014239B08211D6846ADF80030FFF72AFCF8
:1091C0000928CED10320CCE702F1100401230B487B
:1091D00003E00446002BC3D10123A2788A42F8D1D0
:1091E000A27B9207F5D1A268002AF2D1C7E7144604
:1091F0000023ECE7502700204027002060270020B4
:10920000CB1F012B01D90720704730B4164C25889D
:10921000238A854204D0984212D0052030BC704782
:109220009D421FD0A3788B42F7D1A37B9D07F4D139
:10923000A368002BF1D12280204630BCFFF788BC08
:1092400010340123094D03E02C46002BE5D1012306
:10925000A0788842F8D1A07B8007F5D1A0680028CB
:10926000F2D1E8E70023EDE7502700206027002037
:10927000FFF76ABCFFF76ABC10B5148882B002AB76
:10928000A40043F8044DFFF74DFB02B010BD00BF32
:1092900013460022FFF7E6BB10B5094C40222046DA
:1092A00000210AF073FE20464FF4807100F06CFB41
:1092B00004F120004FF48071BDE8104000F064BB61
:1092C000742700204FF6FF73984210B509D0FF288D
:1092D00004460ED80146084800F05EFB48B120461F
:1092E00010BD4FF48071044800F0A0FBB0F5807F02
:1092F000F6D14FF6FF7010BD7427002008B54FF669
:10930000FF73984207D0FF2805D80146034800F0B4
:1093100043FB00B108BD002008BD00BF942700201A
:10932000FF2800D9704710B501460446044800F0F4
:109330005DFB21460348BDE8104000F057BB00BF6D
:109340007427002094270020FF2801D900207047AF
:109350000146014800F0A6BB742700204FF6FF73BA
:10936000984270B52CD0013084B2FF2C24D8154D12
:1093700003E09CB2B4F5807F1ED02146284600F061
:1093800091FB631C0028F4D00F4EA6F12005214666
:10939000304600F087FB88B10134A4B2B4F5807F79
:1093A0000AD02146284600F07DFB631C0028EED140
:1093B0009CB2B4F5807FF4D14FF6FF74204670BDA7
:1093C0000024D4E7742700209427002038B54FF6F6
:1093D000FF73984216D0013084B2FF2C0ED80A4D8C
:1093E00003E09CB2B4F5807F08D02146284600F007
:1093F00059FB631C0028F4D0204638BD4FF6FF749B
:10940000204638BD0024EAE794270020074B1A784D
:1094100002B9704710B50446FEF740FE204601F041
:1094200059FB2046BDE81040FEF7BCBCCA2700200F
:109430002DE9F041244B1F7884B027B9234B1F70CE
:1094400004B0BDE8F0814FF6FF70FFF711FF012176
:10945000002501ABADF8081002AA062104460195CB
:10946000ADF80A500393FFF707FF0728E6D02E4612
:109470004FF6FF7870B9019B9D4220469CBFA046E5
:109480001D46FFF7F5FE02AA06210446FFF7F4FE8B
:109490000028F0D0052802D101960023ECE74FF612
:1094A000FF739C4209D10A4B0A4A1D60074BA2F880
:1094B00000801F7004B0BDE8F081044B00271F70CE
:1094C00004B0BDE8F08100BFCA270020CC270020EF
:1094D000B4270020C82700202DE9F043054687B0B7
:1094E0008088FFF7B1F82B786880083B032B19D8E8
:1094F000DFE803F0685702285F4C237843B14FF64A
:10950000FF70FFF7B5FE4FF6FF739842064677D01F
:109510005A4B1B7833B15A4BAA881B889A4201D107
:10952000FFF786FF574E33784BB1574F002457F85B
:10953000243028469847337801349C42F7DB07B043
:10954000BDE8F0834C4B1A78002AEBD000240DF1D3
:1095500004084C4E1C702146142240460AF016FDA9
:10956000AA68337803920D214FF0FF328DF8041072
:10957000CDF80620002BE2D0434F57F82430284680
:109580009847337801349C42F7DB002BD7D0002476
:1095900057F8243040469847337801349C42F7DB33
:1095A000CDE76B7A002BBDD138490A68002AB9D0C3
:1095B000E8688242B6D136480B600268EB60013A37
:1095C0000260AFE76B7A93B930490A6812B1E86874
:1095D00082420FD0294B1B78002BA3D0284BAA889E
:1095E0001B889A429ED12B7A062B9BD198E7012BA0
:1095F00098D1EFE7224AA8880B60EB60108091E7D2
:10960000FFF738FEB04283D14FF000090DF1040896
:109610001C4E84F800904946142240460AF0B6FCDD
:1096200033780C214FF0FF328DF80410CDF806206E
:109630009BB1154F57F8293028469847337809F1E0
:1096400001099945F6DB43B1002457F82430404620
:109650009847337801349C42F7DB084B1B78002B8A
:109660003FF46DAF064AAB8812889A427FF467AF29
:10967000FFF7DEFE63E700BFB8270020CC270020FD
:10968000C8270020CB270020BC270020D02700209F
:10969000B427002078B1F8B5074E337853B1074F9F
:1096A0000546002457F8243028469847337801347B
:1096B0009C42F7DBF8BD7047CB270020BC27002079
:1096C000F8B5074E337853B1064F0546002457F8D6
:1096D000243028469847337801349C42F7DBF8BDA4
:1096E000CB270020BC270020F8B5074E337853B1B4
:1096F000064F0546002457F824302846984733780B
:1097000001349C42F7DBF8BDCB270020BC270020AA
:1097100038B5FFF7D1F8E8B9FFF738FBD0B901F059
:1097200087F9B8B900F0DCF9A0B9FEF70DFB88B9EC
:10973000FEF7D6FB70B9FEF78BFE58B9064A07490B
:10974000074B084C106001224FF6FF7508701A7025
:10975000258038BD032038BDD0270020CC2700202D
:10976000CA270020C82700200A4B1B787BB10A4A71
:109770001378022B09D810B4591C084C117044F806
:10978000230000205DF8044B704704207047082038
:10979000704700BFCA270020CB270020BC2700202D
:1097A000034B1B780BB101F0A5B90820704700BF2F
:1097B000CA27002009B101F0E1B97047F0B5224E87
:1097C000337887B0002B3BD0204D01234FF6FF703C
:1097D0002B70FFF74DFD4FF6FF77B842044628D1B6
:1097E00000241B4E2C702146142201A80AF0CEFB47
:1097F00033780C214FF0FF328DF80410CDF806209D
:1098000043B1144D55F8243001A8984733780134FA
:109810009C42F7DB0025284607B0F0BD2046FEF746
:109820004DFF054640B92046FFF722FDB8420446E9
:10983000F1D03378002BF1D10325284607B0F0BDD5
:109840000825284607B0F0BDCA270020B827002009
:10985000CB270020BC27002038B5059CD0B1C9B16A
:10986000C3B1069D05FB04F5954213D8049DE21D86
:10987000B5EBD20F0ED36CB1069A5AB10246C2E9CB
:1098800000131846069B9460D360A1B200F07CF8E8
:10989000002038BD072038BDF8B5002840D0036847
:1098A0000646002B3CD04068002839D0B368002B16
:1098B00036D00F460025FF240DE0FF2C19BF2B1BCF
:1098C000013301232C469F422BD00135B368EDB202
:1098D0009D4225D27068294600F05EF80028ECD140
:1098E000FF2C16D0AC4214D2A4B2336863B17068B6
:1098F000E3B248B1FF2B214606D000F0D3F818B1EF
:109900002146706800F072F80134A4B2E3B2AB42B1
:10991000EBD30135B368EDB29D424FF0FF04D9D3CC
:10992000FF242046F8BD00BF98B138B5036873B175
:10993000436863B1FF290AD0054618460C4600F07B
:10994000B1F820B1E968286801FB040038BD0020A7
:1099500038BD0020704700BF70B138B5036853B1FF
:10996000436843B1FF2906D08DB204462946184604
:1099700000F098F808B938BD704729466068BDE81E
:10998000384000F033B800BF20B1CA1DD208002112
:109990000AF0FCBA704700BF2DE9F04182B058B11F
:1099A000CF0801F007044FF0010808FA04F4C35D82
:1099B000E4B214EA030604D00026304602B0BDE843
:1099C000F081054602A800F8016D06F0F7FAEB5D9C
:1099D0001C4202D11C43EC5546469DF8070006F098
:1099E00023FB304602B0BDE8F08100BFE8B170B59E
:1099F000C1F3C706012501F00701835D8D402B42AD
:109A000082B001D102B070BD044602A8002300F864
:109A1000013D06F0D3FAA15D9DF8070021EA05019A
:109A2000A15506F001FB02B070BD70472DE9F0476B
:109A3000884682B028B321B3074600254FF00109BC
:109A400003E00135ADB2A8451BD0EE0805F00704D0
:109A500009FA04F4BB5DE4B2234007EB060AF0D137
:109A60000DF107008DF8073006F0A8FABB5D1C4227
:109A70000CD001359DF80700ADB206F0D5FAA84527
:109A8000E3D14546284602B0BDE8F0871C439DF867
:109A900007008AF8004006F0C7FA284602B0BDE881
:109AA000F08700BF58B1CB0801F00701C25C012369
:109AB00003FA01F10A4214BF184600207047012042
:109AC000704700BF7EDF70477FDF704786DF7047DB
:109AD000024B0A781978FDF7CDBC00BF2022002088
:109AE0002DE9F0411F4C2378182B37D01E4D2B78D1
:109AF000182B2FD01D4E3378182B27D01C4F3B78B6
:109B0000182B1FD0DFF86C8098F80000182814D0AC
:109B10002378182B0ED02B78182B0BD03378182BDA
:109B200008D03B78182B05D0182814BF002003203C
:109B3000BDE8F0810320BDE8F081FDF775FC88F8F1
:109B40000000E5E7FDF770FC3870DBE7FDF76CFC23
:109B50003070D3E7FDF768FC2870CBE7FDF764FCB5
:109B60002070C3E72122002024220020222200208E
:109B700023220020202200202DE9F04F91B09346AF
:109B800005460E46FDF71EFCDFF8A881044698F84E
:109B900000102846FDF752FC2022814600210DEBE3
:109BA00002000AF0F3F9012C33D0FCB126B333786C
:109BB000DB074DD45D4BCDF82CB00F934FF6FF7AF9
:109BC000012C4FF000041AD108AB3246214628463A
:109BD000FFF77AFF074647B3B9F1000F08D05046A8
:109BE000FEF76CFD384611B0BDE8F08F43F2020776
:109BF000384611B0BDE8F08F85244FF6FF7A08ABE8
:109C0000002221462846FFF75FFF0746002FE3D1D9
:109C10000BE0474B002219782846FDF72BFC002E5D
:109C2000C5D185244FF6FF7ACEE7002CD4D1B9F107
:109C3000000FDDD098F8001001222846FDF71AFC2D
:109C400028465146FEF71CFD384611B0BDE8F08F9E
:109C50002846FEF717FC4FF6FF73984282460746E8
:109C600031D0012C3CD003AB012207215046FFF735
:109C700059F911280746AFD068BB01465022049815
:109C80000AF084F9049A294B14700499CDF82CB089
:109C900001F1340001F118074A1C089011312846DF
:109CA000CDE90C720F93FEF70DFCA0B907215046C9
:109CB000FFF748FA052807460DD0002880D0B9F1F3
:109CC000000F95D08BE7FFF79BF8B842824602D091
:109CD0004FF00109C7E70327B9F1000F88D07EE7ED
:109CE000134F28463978FDF7A9FB03AB0028BBD1F9
:109CF00001461422184601930AF048F90422284626
:109D00008DF80C20ADF80E50FEF7BCFB019BADF8B2
:109D10001000184600F0DEFC39782846FDF78EFB6F
:109D2000019B0028A0D185244EE700BFD427002046
:109D3000202200202322002038B50C460546FDF7DE
:109D400041FB012808D12CB121462846BDE8384006
:109D5000FFF7B8BE204638BD43F2020038BD00BF51
:109D60002DE9F0470388113B88B00446092B7CD8C5
:109D7000DFE813F00A007B00A500C6007B007B0033
:109D80007B007B001E017E00037A8488CB4F3D2B35
:109D9000204641F23D03397814BF4FF488551D46E3
:109DA000FDF74CFB002860D0C54B20461978FDF725
:109DB00045FB0346002800F0E7812046FEF762FBE2
:109DC000C04B064619782046FDF738FBBE4B0028ED
:109DD000197820460CBF4FF002094FF00109FDF73A
:109DE0002DFB8046002840F0B5824FF6FF739E425F
:109DF00000F0A98230460721FFF748F9002800F05B
:109E0000A282052803AE13D0059007232046CDF883
:109E10000C80CDF81080ADF80E40CDE906888DF8A5
:109E20000C30FEF72FFBADF81000304600F052FC6E
:109E30000023C6E901330393C6E903331A4603231B
:109E40003978ADF80E4020468DF81490ADF81650D4
:109E50008DF80C30FDF70EFBBDF80E00FEF712FB7F
:109E6000ADF81000304600F035FC08B0BDE8F087D2
:109E7000934B80881978FDF7E1FA05460028F4D164
:109E8000A088FDF7B9FA0346002800F098818B4BB3
:109E9000A08819782A46FDF7EDFAA088ADF80E00E3
:109EA00002238DF814508DF815508DF80C30FEF704
:109EB000E9FAADF8100003A800F00CFCD5E78088A3
:109EC000FDF780FA012800F0018103AE34F8042F79
:109ED00000230521104604340393B3607360ADF88A
:109EE0000E20C6E903338DF80C100594FEF7CAFA6C
:109EF000ADF81000304600F0EDFB08B0BDE8F0878B
:109F000000F110094846FEF727FB4FF6FF73984211
:109F1000804600F015810146A088FEF7B1FBA588B8
:109F2000664F284639780122FDF7A4FA644B28468B
:109F300019780022FDF79EFA624B28461978002214
:109F4000FDF798FA604B03AE197828460022FDF71A
:109F500091FA00230122284603937360C6E9023375
:109F600033618DF80C20ADF80E50FEF78BFAADF88A
:109F70001000304600F0AEFB4FF6FF7398454CD012
:109F8000404601AA0721FEF7C9FF002845D1029DDE
:109F900095F84430DB0739D500231A4605F1340122
:109FA000A088FFF793FD034600283FF45EAF3EE034
:109FB00090F808808588B8F1000F4ED03F4F437A63
:109FC00039782846C3F30104FDF738FA00283FF436
:109FD0004CAF3B4B28461978FDF730FA1FFA88F84A
:109FE0000346002840F06381CDE905331A46049307
:109FF0000793032303903978ADF80E502846ADF847
:10A0000016808DF818408DF80C30CCE0494605F1EB
:10A010004600FEF77FFA0028BED100231A461946F3
:10A02000A088FFF753FD0346002800F0DF80A188D9
:10A030000022084607240392C6E90122C6E903224A
:10A04000ADF80E1005938DF80C40FEF71BFAADF835
:10A050001000304600F03EFB07E72846FEF712FAF4
:10A06000164B0746197842462846FDF703FA637AED
:10A0700013F0040669D1144B28461978FDF7DEF970
:10A080008046002840F0618103AE637AADF80E503F
:10A0900013F0040F0CBF02220122022328468DF880
:10A0A00015808DF814208DF80C30FEF7EBF9ADF823
:10A0B0001000304600F00EFBD7E600BF2122002042
:10A0C000242200202222002023220020237AA78895
:10A0D00013F00105C14B18BF0546197838464FF0FB
:10A0E000010214BFA8464FF00208FDF7C3F9BC4BAC
:10A0F000384619780122FDF7BDF9BA4B2A4619787E
:10A100003846FDF7B7F9B84B03AE19783846002248
:10A11000FDF7B0F90023012238460393B360736062
:10A12000C6E90333ADF80E708DF814808DF80C205D
:10A13000FEF7A8F9ADF81000304600F0CBFAC5E6FE
:10A14000A088FEF79FF98046E9E601AB01220721CE
:10A150003846FEF7E7FE814600285AD003AE0723B3
:10A1600005902846CDF80C80C6F80480ADF80E5056
:10A17000C6E903888DF80C30FEF784F9ADF81000BD
:10A18000304600F0A7FA80E7CDE904331A46CDE95E
:10A190000633032303903978ADF80E402046ADF81E
:10A1A00016508DF80C30FDF765F9BDF80E00FEF77E
:10A1B00069F9ADF8100003A800F08CFA55E6A28802
:10A1C00086490390CDE905331046ADF80E200325EE
:10A1D0001A460493079341F20604012309788DF887
:10A1E0000C50ADF816408DF81830DCE7A4880393C6
:10A1F000C6E9013320461A46ADF80E40C6E90333DE
:10A20000032441F2060339788DF80C40ADF816307E
:10A2100020E64FF6FF710298FEF7FAF84FF6FF734B
:10A220009842824624D0DFF8C48101462846FEF7D2
:10A2300027FA98F800102846FDF700F903AE002829
:10A2400000F09480524607213846FEF7D9FF4FF0C0
:10A250000108002840F0AA80634B28461978FDF7D2
:10A26000EDF800283FF411AF3846FEF727FA0CE767
:10A270003A4638460721FEF7C3FF002800F09280D7
:10A2800003AE072305902846CDF80C90C6F804903D
:10A29000ADF80E50C6E903998DF80C30FEF7F2F8D0
:10A2A000ADF810003046C84600F014FAEDE6284636
:10A2B000FEF7E8F84B4B064619782846FDF7BEF83E
:10A2C000494B0028197828460CBF4FF0020A4FF07E
:10A2D000010AFDF7B3F88146002842D14FF6FF731B
:10A2E0009E423CD030460721FEF7D0FEB8B3052889
:10A2F00003AE13D0059007232846CDF80C90CDF877
:10A300001090ADF80E50CDE906998DF80C30FEF79F
:10A31000B9F8ADF81000304600F0DCF90023C6E9CA
:10A3200002330393736033611A4603233978ADF81F
:10A330000E5028468DF814A0ADF816808DF8184000
:10A340008DF80C3086E503AE72E53846FEF7B6F9B7
:10A35000B04699E63046FEF7B1F903AE68E503AEC4
:10A36000DCE73046FEF7AAF903AED7E70146142230
:10A37000304609F00BFE042328468DF80C30ADF86A
:10A380000E50FEF77FF8ADF81000304600F0A2F94D
:10A3900098F800102846FDF751F8804600287FF411
:10A3A00051AF59E74FF0010803AE6EE64FF00008D9
:10A3B0000723C6E9018805902846CDF80C80C6E938
:10A3C0000388ADF80E508DF80C30FEF75BF8ADF851
:10A3D0001000304600F07EF93EE700BF2122002049
:10A3E00024220020222200202322002020220020DC
:10A3F000F0B54F4B89B00024CDE904441B680393AA
:10A4000003AE054696E807006F4687E80700052378
:10A4100028468DF80C30ADF80E50FEF733F8ADF845
:10A4200010003046CDE90547FFF734F9414B00995C
:10A430001A682846FFF7A0FB862837D03E4B074610
:10A44000197822462846FDF715F83C4BA7F1110272
:10A45000B2FA82F2197852092846FDF70BF8384B08
:10A46000224619782846FDF705F8364B224619781A
:10A470002846FCF7FFFF37F0080301D109B0F0BD13
:10A48000112FFBD02846C6E90044C6E902443461D6
:10A49000ADF80E50009CFDF7F5FF0D2FADF8100044
:10A4A00030D0072305978DF80C3026E0224B01228F
:10A4B00019782846FCF7DEFF204B224619782846FB
:10A4C000FCF7D8FF1E4B224619782846FCF7D2FF2E
:10A4D0001C4B224619782846FCF7CCFF28460394EB
:10A4E000C6E90144C6E90344ADF80E50FDF7CAFFC2
:10A4F0000623ADF810008DF80C303046FFF7CAF88F
:10A5000009B0F0BD03238DF80C307CB1237813F033
:10A51000010F0CBF02210121002241F201138DF82D
:10A5200014108DF81820ADF81630E6E70221F3E795
:10A5300020280020142800202A2200202922002080
:10A5400028220020272200202DE9F0475B4FDFF86A
:10A550008081397888B00446FCF770FF98F80010C5
:10A5600082462046FCF76AFF064600283ED1544B3F
:10A5700004901B6803930DF10C09059099E80700FE
:10A580006D46052385E8070020468DF80C30ADF8B0
:10A590000E40FDF777FFADF810004846CDE90565A0
:10A5A000FFF778F8474BDDF800901B787BB35246F5
:10A5B00049462046FFF7C0FB86280546424B2BD074
:10A5C000197800222046FCF755FF404BA5F11102F7
:10A5D000B2FA82F2520919782046FCF74BFF112D8E
:10A5E00007D0002D4AD108B0BDE8F0874FF0000930
:10A5F000DDE7324698F800102046FCF73BFF524654
:10A6000039782046FCF736FF08B0BDE8F0879DF8A2
:10A610000930002BCBD1E6E7197801222046FCF760
:10A6200029FF2A4B002219782046FCF723FF3246E7
:10A6300098F800102046FCF71DFF52463978204656
:10A64000FCF718FF00232046CDE90333CDE905339D
:10A65000ADF80E400793FDF715FF0D2DADF8100076
:10A6600013D0862D0EBF0623072305958DF80C30D9
:10A6700003A8FFF70FF808B0BDE8F087112DB2D09E
:10A68000082DDFD108B0BDE8F08703238DF80C302A
:10A69000B9F1000F10D099F8003013F0010F0CBF82
:10A6A00002210121002241F201138DF814108DF8CE
:10A6B0001820ADF81630DBE70221F3E72522002051
:10A6C000202800201D2800202822002027220020EA
:10A6D000262200202DE9F0410378052B88B004469E
:10A6E00045D0122B3DD1B04B45881E68002E00F09E
:10A6F0002C81AE4B017A1B7803F00102914205D800
:10A70000427AC3F340039A4240F28E80012700262A
:10A71000002231462846FFF70FFB86288046A44BCF
:10A7200000F0FB80197800222846FCF7A3FEA14B1D
:10A73000A8F11102B2FA82F2520919782846FCF700
:10A7400099FEB8F1110F40F094809B4B3A4619786E
:10A750002846FCF78FFE994B284619780022FCF713
:10A7600089FE2046FEF796FF08B0BDE8F0818E4ACC
:10A770004588126803920026CDE9046603AF97E886
:10A780000700D4F808808DF80C306C4684E8070088
:10A790002846ADF80E50FDF775FEADF810003846AE
:10A7A000CDE90584FEF776FF854B00991A682846A7
:10A7B000FFF7E2F986280446824B00F0848019787E
:10A7C00032462846FCF756FE7F4BA4F11102B2FA3E
:10A7D00082F2197852092846FCF74CFE744B324637
:10A7E00019782846FCF746FE724B324619782846FF
:10A7F000FCF740FE34F00803B6D0112CB4D0284644
:10A80000C7E90066C7E90266ADF80E503E61009DDB
:10A81000FDF738FE0D2CADF8100000F0AC800723DA
:10A8200005948DF80C3074E04FF00008CDE90488F1
:10A83000039603AF97E807006E4686E807000523F6
:10A8400028468DF80C30ADF80E50FDF71BFEADF824
:10A8500010003846CDE90586FEF71CFF5B4B009ED5
:10A860001B7823B99DF80930002B3FF47AAF0027FD
:10A870004EE7B8F1000F3FF474AFB8F1110F3FF499
:10A8800070AFB8F1080F3FF46CAF03AF0023284658
:10A8900003937B60ADF80E50C7E902333B61FDF7CF
:10A8A000F1FDB8F10D0FADF8100050D0B8F1860FE2
:10A8B0000EBF06230723CDF814808DF80C303846E0
:10A8C000FEF7E8FE4DE7197801222846FCF7D2FD95
:10A8D0003D4B324619782846FCF7CCFD344B3246C6
:10A8E00019782846FCF7C6FD324B324619782846BF
:10A8F000FCF7C0FD28460396C7E90166C7E9036671
:10A90000ADF80E50FDF7BEFD0623ADF810008DF832
:10A910000C303846FEF7BEFE26E71978284601229D
:10A92000FCF7A8FD234B284619780022FCF7A2FD6E
:10A93000214B3A4619782846FCF79CFD1F4B002214
:10A9400019782846FCF796FD9FE70127E0E60323E8
:10A950008DF80C302EB3337813F0010F0CBF0221A9
:10A960000121002241F201138DF814108DF81820F6
:10A97000ADF81630A3E703238DF80C307DB12B78AA
:10A9800013F0010F0CBF02210121002241F201133B
:10A990008DF814108DF81820ADF81630B9E70221A3
:10A9A000F3E70221DDE700BF20280020182800205F
:10A9B00028220020272200202622002025220020F5
:10A9C000142800202A220020292200201D280020EF
:10A9D00008B50378082B1DD30B2B0DD9132B19D1D8
:10A9E0000D4B0E4918780022FCF766FD0C4B0D4903
:10A9F00018780022FCF760FD0B4B084918780022FC
:10AA0000FCF75AFD094B074918780022BDE80840B9
:10AA1000FCF752BD08BD00BF2A220020F1A30200AE
:10AA20002822002049A502002922002027220020F8
:10AA300010B5224C2378182B15D0214C2378182BD5
:10AA400018D0204C2378182B1BD01F4C2378182BA0
:10AA50001ED01E4C2378182B21D01D4C2378182B88
:10AA600024D0002010BDFCF7DFFC2070144C2378AC
:10AA7000182BE6D1FCF7D8FC2070124C2378182B49
:10AA8000E3D1FCF7D1FC20700F4C2378182BE0D1D8
:10AA9000FCF7CAFC20700D4C2378182BDDD1FCF795
:10AAA000C3FC20700A4C2378182BDAD1FCF7BCFCCD
:10AAB0001828207008BF0320D3D110BD2722002002
:10AAC00028220020252200202622002029220020E2
:10AAD0002A22002008B5FFF743F9044B04491878EF
:10AAE0000022BDE80840FCF7E7BC00BF2722002099
:10AAF00049A502000346002833D0027802F0820103
:10AB000080292CD0C2F30211042928D802F0F201C6
:10AB1000322924D041788078814220D806291ED954
:10AB200010281CD8D978480719D4187910F0040FC8
:10AB300015D10143080712D4D20701F003010CD547
:10AB400069B10B4A186810601B790A480A491371E9
:10AB5000012302600B70002070470029F1D007200C
:10AB600070470449044A086001211170704700BF12
:10AB700018280020202800201D280020FEF7A8BF4C
:10AB8000032810B5044611D80B4B1C5D1F2C04D9AB
:10AB90000A4940F2C71008F0C7FF4FF0A043D3F8AE
:10ABA0000405E040C04300F0010010BD04493A2014
:10ABB00008F0BAFFE8E700BF2C540300D4530300A9
:10ABC00080530300032810B5044603D909494120E6
:10ABD00008F0AAFF084B1C5D1F2C04D9074940F25E
:10ABE000C71008F0A1FF01234FF0A042A340C2F814
:10ABF0000C3510BD805303002C540300D4530300C4
:10AC0000032810B504460FD80A4B1C5D1F2C04D92D
:10AC1000094940F2C71008F087FF01234FF0A04216
:10AC2000A340C2F8083510BD0449472008F07CFF56
:10AC3000EAE700BF2C540300D45303008053030001
:10AC40004FF0A04310B44FF480204FF400344FF481
:10AC500000214FF48012C3F80845C3F80805C3F873
:10AC60000815C3F808255DF8044B70474FF0A04362
:10AC700010B44FF480204FF400344FF400214FF40F
:10AC80008012C3F80C45C3F80C05C3F80C15C3F8C3
:10AC90000C255DF8044B7047032810B5044603D912
:10ACA0000D495F2008F040FF0C4B1C5D1F2C04D9A0
:10ACB0000B4940F2C71008F037FF4FF0A0410122C6
:10ACC000D1F80435A24022EA03001340C1F8080578
:10ACD000C1F80C3510BD00BF805303002C54030095
:10ACE000D4530300032810B5044611D80B4B1C5D48
:10ACF0001F2C04D90A4940F2C71008F015FF4FF085
:10AD0000A043D3F81005E040C04300F0010010BD9F
:10AD10000449AC2008F008FFE8E700BF285403000E
:10AD2000D4530300805303000D2809D00E2809D006
:10AD30000F2809D010280CBF03204FF0FF307047B8
:10AD4000002070470120704702207047032810B58B
:10AD5000044603D90349CB2008F0E6FE024B185DF8
:10AD600010BD00BF8053030028540300C20730B455
:10AD70000ED483070AD54FF0A0430C22C3F8342722
:10AD8000C3F83827C3F83C27C3F8402730BC7047C6
:10AD90004FF0A0430322C3F844274FF40035C3F813
:10ADA00048274FF48024C3F84C274FF40021C3F800
:10ADB00050274FF48012C3F80855C3F80845C3F86C
:10ADC0000815C3F80825D4E750E8002F0B4640E8E3
:10ADD000003C9CF0000FF7D11046704750E8002F60
:10ADE00042EA010340E8003C9CF0000FF6D1104617
:10ADF000704700BF50E8003F43EA010240E8002CE2
:10AE00009CF0000FF6D11046704700BF50E8003F9D
:10AE100003EA010240E8002C9CF0000FF6D1104636
:10AE2000704700BF50E8002F02EB010340E8003CF0
:10AE30009CF0000FF6D11046704700BF50E8003F6D
:10AE400003EB010240E8002C9CF0000FF6D1104605
:10AE5000704700BF50E8003FA3EB010240E8002C20
:10AE60009CF0000FF6D11046704700BF012350E858
:10AE700000CF4CEA030240E8002191F0000FF6D128
:10AE800060467047012350E8002F42EA030C40E877
:10AE900000C191F0000FF6D160467047002350E8E2
:10AEA00000CF0CEA030240E8002191F0000FF6D138
:10AEB0006046704799B110B4B2FBF3F403FB14245D
:10AEC000A4B244B9C0E9001484608281C3812046E1
:10AED0005DF8044B704709205DF8044B70470E2065
:10AEE000704700BF82B050E8022FC188B2EB324FEA
:10AEF0004FF0000317BF92B241EA014142EA01411B
:10AF000004E04268B2EB324F08BF012340E802126E
:10AF1000002AE8D18DF807309DF80730002B0CBFD0
:10AF20001120002002B0704730B482B050E8013FD9
:10AF30009DB2C48925448489A54228BF2D1B04895C
:10AF4000A54202BFBFF32F8F002207E0C5EA030529
:10AF500040E80154002CE9D14FF001028DF80320A4
:10AF60000193019B9DF803200B602AB10B880068B8
:10AF7000184402B030BC704702F0FF031846F8E7EF
:10AF80000A884B889A4201D00020704750E8012F70
:10AF9000C2EA024240E80123002BF7D101207047AA
:10AFA00030B482B050E8023F1FFAA3F5C488A5422E
:10AFB00002BFBFF32F8F00220DE0C489254484898E
:10AFC000A54228BF2D1BC3EA054540E80254002CCA
:10AFD000E8D14FF001028DF803200193019B9DF809
:10AFE00003200B602AB14B880068184402B030BCC3
:10AFF000704702F0FF031846F8E700BF0A884B8845
:10B000009A4201D00020704750E8022FC2EA224243
:10B0100040E80223002BF7D10120704701F01F0206
:10B020004B09012100EB83009140FFF7E3BE00BF15
:10B0300001F01F0201234909934000EB8100D9432D
:10B04000FFF7E4BE4B0901F01F0150F82300C84090
:10B0500000F00100704700BF2DE9F84F01F1FF3902
:10B060004FEA591300F104090F46064609EB83091C
:10B07000044600254FF0010823686FEA030B9BFA92
:10B08000ABFBBBFA8BFBBBF1200F20D0AB445F4581
:10B090000CD81CE02368DB4393FAA3F3B3FA83F3E1
:10B0A000202B05EB030B12D05F4510D90BF01F0AC4
:10B0B0004FEA5B1008FA0AF106EB8000FFF78EFEFC
:10B0C00020FA0AF0C307E5D45846BDE8F88F0434E7
:10B0D0004C4505F12005CFD1BB465846BDE8F88F59
:10B0E00048B338B503680446002B3CD0636823B3EB
:10B0F000A36853B3E368002B2FD0A38AABB1D4E984
:10B100000112521A2068D2B2531E0160DBB242B162
:10B1100021680A68581E551C0D601370C3B2FF2BBE
:10B12000F6D123680020187138BD114940F2031090
:10B1300008F0FAFCE3E70E2070470D494FF48070E9
:10B1400008F0F2FCA368002BD4D1094940F20110A9
:10B1500008F0EAFCE368002BCFD105494FF4817079
:10B1600008F0E2FCC9E70249FF2008F0DDFCBDE77A
:10B1700030540300F0B5044683B010B302A8002594
:10B1800000F8015D04F01AFFD4E900311A688A4220
:10B1900010D9511E19602168A3680F6812F8015C6C
:10B1A0000A79A68AE068DB1BDBB29A4206FB05053A
:10B1B00038BF0B719DF8070004F036FF284603B036
:10B1C000F0BD03494FF4927008F0AEFCD6E700BF23
:10B1D0003054030030B50C4683B00546B0B1E4B13D
:10B1E00002A8002300F8013D04F0E8FE2A68136875
:10B1F000591C1160E968AA8A641AB4FBF2F41C7045
:10B200009DF8070004F010FF03B030BD064940F27E
:10B21000471008F089FC002CE2D103494FF4A470D8
:10B2200008F082FCDCE700BF305403000220FFF787
:10B2300033BD00BF2DE9F0470D460646FFF774FD0C
:10B2400003281ED8012D04461DD00ED3022D18D17F
:10B250001B4B00EB40041C44657895B1194B1B68EF
:10B260007BB12846BDE8F0471847174804F036FC84
:10B27000134B164A04EB44010B44125D9D78AA421D
:10B28000EBD0BDE8F0870E4F4FEA400808EB000313
:10B29000FA18FD5C53782BB9A04447440B4BBA789D
:10B2A0001A55DAE7DFF8289007484A464FF400417C
:10B2B00004F0BEFB0028EFD189F80060ECE700BF86
:10B2C000882800209C28002048280020A42800204E
:10B2D0002428002010B50078FFF726FD03280BD89E
:10B2E000064B00EB40001844407828B1044B1B6823
:10B2F00013B1BDE81040184710BD00BF88280020DA
:10B300009C280020B24B1B68DB0700D4704770B547
:10B31000B04DB14E2B7834786BB1B04B1B78002018
:10B320002870002B4BD0FFF76BFC0120FFF768FC67
:10B330000320FFF765FC172C40D8DFE814F0B500B8
:10B34000F000F000D8000401C6000F01EA00500030
:10B350004300500043006100180018001800180056
:10B360001800660077008B009F005D005D009C4820
:10B3700004F0B4FBD4F11104054600F0FC80002871
:10B3800040F0F980012C13D0C82303FB04F44FF4E0
:10B39000FA704FF400430021C3FB04014FF47A72AA
:10B3A000002309F079FD2A4601468D4804F040FB50
:10B3B0000220FFF707FC894B01221A7070BDFFF7CE
:10B3C0003FFCB8E7012318462B70FFF765FC00220D
:10B3D0004FF480418348BDE8704004F029BB01234D
:10B3E00018462B70FFF758FC002240F6CD417D48EF
:10B3F000BDE8704004F01CBBFFF738FC347070BD32
:10B40000FFF734FC0C23337070BD744B1B78002B9A
:10B4100000F0BB800020FFF7F3FB0120FFF7F0FBFB
:10B420000320FFF7EDFB1223337070BD6B4B1B78CD
:10B43000002B00F0AD800020FFF7E2FB0120FFF7BA
:10B44000DFFB0320FFF7DCFB0020FFF7BBFB132330
:10B45000337070BD614B1B78002B00F0A980002079
:10B46000FFF7CEFB0120FFF7CBFB0320FFF7C8FB64
:10B470000120FFF7A7FB1423337070BD574B1B78D7
:10B48000002B7FD00020FFF7BBFB0120FFF7B8FBAC
:10B490000320FFF7B5FB0020FFF794FB0120FFF727
:10B4A00091FB1523337070BD4C4B1B78002B00F0C3
:10B4B00087800020FFF7A4FB0120FFF7A1FB0320FA
:10B4C000FFF79EFB0023337070BD0020FFF758FB91
:10B4D000002860D00020FFF793FB05233370002283
:10B4E00041F69A113F48BDE8704004F0A1BA00202F
:10B4F000FFF746FB00285ED00020FFF781FB46F2F5
:10B5000066610323337000223648BDE8704004F0C2
:10B510008FBA0020FFF756FB0723337070BD002061
:10B52000FFF72EFBD0B30020FFF76AFB022C4EF290
:10B53000666118BF4FF40031347000222948BDE81D
:10B54000704004F075BA0020FFF71AFBD8B3002052
:10B55000FFF756FB4FF400310423D3E70020FFF739
:10B560009BFB06233370002240F6CD411D48BDE809
:10B57000704004F05DBA0220FFF742FB174B002237
:10B580001A7070BDFFF75CFB85E7FFF759FB4AE7D0
:10B59000FFF756FB58E7FFF715FB9EE7FFF712FB97
:10B5A00043F2333141F69A13022C08BF1946C3E720
:10B5B000FFF746FB5CE7FFF705FB41F69A11A0E7B2
:10B5C000FFF73EFB7EE7FFF7FDFA43F23331C3E7B7
:10B5D0009428002098280020A0280020252800205A
:10B5E0002828002068280020032801D9002070475F
:10B5F000FFF778BB38B5C34B1C6814F0010401D1C8
:10B60000204638BDC04C2378054663B1BF4B1B783C
:10B610000020207023B3FFF7F3FA0120FFF7F0FAC0
:10B620000320FFF7EDFA172D00F26981DFE815F02E
:10B63000C300E800E8000C01D5001F01FE00320144
:10B6400028001B0028001B006A00710071007100B7
:10B65000710071009A00AD0035004B006400640079
:10B66000FFF7EEFADFE7012318462370FFF714FB1C
:10B6700000224FF48041A648BDE8384004F0D8B914
:10B68000012318462370FFF707FB002240F6CD4147
:10B690009F48BDE8384004F0CBB99C4B1B78002B89
:10B6A00000F012810020FFF7ABFA0120FFF7A8FAA3
:10B6B0000320FFF7A5FA0120FFF784FA954B142227
:10B6C0001A7000249CE7914B1B78002B00F0FF8040
:10B6D0000020FFF795FA0120FFF792FA0320FFF709
:10B6E0008FFA0020FFF76EFA0120FFF76BFA894B03
:10B6F00015221A70002483E7FFF7B8FA854B00245F
:10B700001D707DE7FFF7B2FA824B0C221A700024FD
:10B7100076E7814804F0E2F90446D5F1110000F023
:10B72000C180002C40F0BE80012814D0C82505FB44
:10B7300000F54FF400434FF4FA700021C3FB0501FC
:10B740004FF47A72002309F0A7FB224601467248A3
:10B7500004F06EF904460220FFF734FA6B4B012225
:10B760001A704DE7694B1B78002B00F0AA8000206F
:10B77000FFF746FA0120FFF743FA0320FFF740FAEC
:10B78000644B12221A7000243AE7604B1B78002B9E
:10B7900000F08F800020FFF733FA0120FFF730FA26
:10B7A0000320FFF72DFA0020FFF70CFA594B132264
:10B7B0001A70002424E7554B1B78002B00F08A8078
:10B7C0000020FFF71DFA0120FFF71AFA0320FFF708
:10B7D00017FA504B00241C7012E70020FFF7D0F935
:10B7E000002869D00020FFF70BFA4FF40031494BD5
:10B7F000474804241C700022BDE8384004F018B902
:10B800000020FFF7BDF900286CD00020FFF7F8F901
:10B81000022D4EF2666118BF4FF400313D4B3C489B
:10B820001D700022BDE8384004F002B90020FFF787
:10B8300033FA384B364806241C70002240F6CD41BE
:10B84000BDE8384004F0F4B80020FFF799F900286B
:10B8500043D00020FFF7D4F946F266612D4B2C4807
:10B8600003241C700022BDE8384004F0E1B8002039
:10B87000FFF786F900283FD00020FFF7C1F9254BDC
:10B88000234805241C70002241F69A11BDE8384077
:10B8900004F0CEB80020FFF795F91E4B07221A706E
:10B8A0000024ADE60220FFF7ABF9184B00221A7016
:10B8B000A6E6FFF7C5F976E7FFF784F943F23331DF
:10B8C00095E7FFF7BDF95BE7FFF7BAF9F3E6FFF796
:10B8D000B7F906E7FFF7B4F97BE7FFF773F941F62D
:10B8E0009A11BBE7FFF76EF943F2333141F69A1331
:10B8F000022D08BF194691E7FFF764F9BFE700245E
:10B900007EE600BF942800209828002025280020EB
:10B9100068280020A02800202828002038B5244BC3
:10B92000244A19608307106000F0010503D4CDB9E3
:10B930002C46204638BD204B20480E240F221021D3
:10B940001C701124DA7099715C7240F266620421F5
:10B9500000F010FA0446B8B115B10120FFF706FA5D
:10B96000204638BD0120FFF701FA154A154800218D
:10B9700004F04CF804460028F2D1134A1348012180
:10B98000BDE8384004F042B800F04CFA0446002804
:10B99000E2D101460E4A0F4804F038F80446002D63
:10B9A000DED00120FFF7E2F9002CD9D1DDE700BF9E
:10B9B0009C28002094280020882800209054030010
:10B9C00005B30200B85403002DB20200B0540300C6
:10B9D000D5B20200B4540300032811D8012A0BD0B9
:10B9E000012919D00ED302290AD10E4B00EB4000D9
:10B9F000034400205A70704701290AD00022EFE763
:10BA000007207047074B00EB4000034400209A706A
:10BA1000704700F10E02D2B200EB40030149002052
:10BA2000CA54704788280020032816D810B5FFF79D
:10BA30008DF91F28044612D8A30003F1A04300206B
:10BA4000D3F8002722F44032C3F80027D3F80027A8
:10BA500042F44032C3F8002710BD06207047034966
:10BA600040F2C71008F060F8E6E700BFD4530300C7
:10BA700010B50388102B07D0112B04D1254B186863
:10BA80000138186030B110BD224C216881B10131FC
:10BA9000216010BD01220221FFF79EFF38B3072865
:10BAA00025D01D4B1B68002BEDD0BDE8104018477A
:10BAB00001220846FFF790FF38B1072805D0164B42
:10BAC0001B6803B198472168E1E7072202210120A2
:10BAD000FFF782FF08B10728F1D1042202210020DC
